{
  "_format": "hh-sol-artifact-1",
  "contractName": "ZigZagExchange",
  "sourceName": "contracts/ZigZagExchange.sol",
  "abi": [
    {
      "inputs": [
        {
          "internalType": "string",
          "name": "name",
          "type": "string"
        },
        {
          "internalType": "string",
          "name": "version",
          "type": "string"
        },
        {
          "internalType": "address",
          "name": "weth_address",
          "type": "address"
        },
        {
          "internalType": "address",
          "name": "trusted_forwarder",
          "type": "address"
        }
      ],
      "stateMutability": "nonpayable",
      "type": "constructor"
    },
    {
      "anonymous": false,
      "inputs": [
        {
          "indexed": true,
          "internalType": "bytes32",
          "name": "orderHash",
          "type": "bytes32"
        }
      ],
      "name": "CancelOrder",
      "type": "event"
    },
    {
      "anonymous": false,
      "inputs": [
        {
          "indexed": true,
          "internalType": "bytes32",
          "name": "orderHash",
          "type": "bytes32"
        },
        {
          "indexed": false,
          "internalType": "uint256",
          "name": "filled",
          "type": "uint256"
        },
        {
          "indexed": false,
          "internalType": "uint256",
          "name": "remaining",
          "type": "uint256"
        }
      ],
      "name": "OrderStatus",
      "type": "event"
    },
    {
      "anonymous": false,
      "inputs": [
        {
          "indexed": false,
          "internalType": "address",
          "name": "maker",
          "type": "address"
        },
        {
          "indexed": true,
          "internalType": "address",
          "name": "taker",
          "type": "address"
        },
        {
          "indexed": true,
          "internalType": "address",
          "name": "makerSellToken",
          "type": "address"
        },
        {
          "indexed": true,
          "internalType": "address",
          "name": "takerSellToken",
          "type": "address"
        },
        {
          "indexed": false,
          "internalType": "uint256",
          "name": "makerSellAmount",
          "type": "uint256"
        },
        {
          "indexed": false,
          "internalType": "uint256",
          "name": "takerSellAmount",
          "type": "uint256"
        }
      ],
      "name": "Swap",
      "type": "event"
    },
    {
      "inputs": [
        {
          "components": [
            {
              "internalType": "address",
              "name": "user",
              "type": "address"
            },
            {
              "internalType": "address",
              "name": "sellToken",
              "type": "address"
            },
            {
              "internalType": "address",
              "name": "buyToken",
              "type": "address"
            },
            {
              "internalType": "uint256",
              "name": "sellAmount",
              "type": "uint256"
            },
            {
              "internalType": "uint256",
              "name": "buyAmount",
              "type": "uint256"
            },
            {
              "internalType": "uint256",
              "name": "expirationTimeSeconds",
              "type": "uint256"
            }
          ],
          "internalType": "struct LibOrder.Order",
          "name": "order",
          "type": "tuple"
        }
      ],
      "name": "cancelOrder",
      "outputs": [],
      "stateMutability": "nonpayable",
      "type": "function"
    },
    {
      "inputs": [
        {
          "internalType": "bytes32",
          "name": "",
          "type": "bytes32"
        }
      ],
      "name": "cancelled",
      "outputs": [
        {
          "internalType": "bool",
          "name": "",
          "type": "bool"
        }
      ],
      "stateMutability": "view",
      "type": "function"
    },
    {
      "inputs": [
        {
          "components": [
            {
              "internalType": "address",
              "name": "user",
              "type": "address"
            },
            {
              "internalType": "address",
              "name": "sellToken",
              "type": "address"
            },
            {
              "internalType": "address",
              "name": "buyToken",
              "type": "address"
            },
            {
              "internalType": "uint256",
              "name": "sellAmount",
              "type": "uint256"
            },
            {
              "internalType": "uint256",
              "name": "buyAmount",
              "type": "uint256"
            },
            {
              "internalType": "uint256",
              "name": "expirationTimeSeconds",
              "type": "uint256"
            }
          ],
          "internalType": "struct LibOrder.Order[]",
          "name": "makerOrder",
          "type": "tuple[]"
        },
        {
          "internalType": "bytes[]",
          "name": "makerSignature",
          "type": "bytes[]"
        },
        {
          "internalType": "uint256",
          "name": "takerAmount",
          "type": "uint256"
        }
      ],
      "name": "fillOrderBook",
      "outputs": [
        {
          "internalType": "bool",
          "name": "",
          "type": "bool"
        }
      ],
      "stateMutability": "nonpayable",
      "type": "function"
    },
    {
      "inputs": [
        {
          "components": [
            {
              "internalType": "address",
              "name": "user",
              "type": "address"
            },
            {
              "internalType": "address",
              "name": "sellToken",
              "type": "address"
            },
            {
              "internalType": "address",
              "name": "buyToken",
              "type": "address"
            },
            {
              "internalType": "uint256",
              "name": "sellAmount",
              "type": "uint256"
            },
            {
              "internalType": "uint256",
              "name": "buyAmount",
              "type": "uint256"
            },
            {
              "internalType": "uint256",
              "name": "expirationTimeSeconds",
              "type": "uint256"
            }
          ],
          "internalType": "struct LibOrder.Order[]",
          "name": "makerOrder",
          "type": "tuple[]"
        },
        {
          "internalType": "bytes[]",
          "name": "makerSignature",
          "type": "bytes[]"
        },
        {
          "internalType": "uint256",
          "name": "takerAmount",
          "type": "uint256"
        }
      ],
      "name": "fillOrderBookETH",
      "outputs": [
        {
          "internalType": "bool",
          "name": "",
          "type": "bool"
        }
      ],
      "stateMutability": "payable",
      "type": "function"
    },
    {
      "inputs": [
        {
          "components": [
            {
              "internalType": "address",
              "name": "user",
              "type": "address"
            },
            {
              "internalType": "address",
              "name": "sellToken",
              "type": "address"
            },
            {
              "internalType": "address",
              "name": "buyToken",
              "type": "address"
            },
            {
              "internalType": "uint256",
              "name": "sellAmount",
              "type": "uint256"
            },
            {
              "internalType": "uint256",
              "name": "buyAmount",
              "type": "uint256"
            },
            {
              "internalType": "uint256",
              "name": "expirationTimeSeconds",
              "type": "uint256"
            }
          ],
          "internalType": "struct LibOrder.Order",
          "name": "makerOrder",
          "type": "tuple"
        },
        {
          "internalType": "bytes",
          "name": "makerSignature",
          "type": "bytes"
        },
        {
          "internalType": "uint256",
          "name": "takerSellAmount",
          "type": "uint256"
        },
        {
          "internalType": "bool",
          "name": "fillAvailable",
          "type": "bool"
        }
      ],
      "name": "fillOrderExactInput",
      "outputs": [
        {
          "internalType": "bool",
          "name": "",
          "type": "bool"
        }
      ],
      "stateMutability": "nonpayable",
      "type": "function"
    },
    {
      "inputs": [
        {
          "components": [
            {
              "internalType": "address",
              "name": "user",
              "type": "address"
            },
            {
              "internalType": "address",
              "name": "sellToken",
              "type": "address"
            },
            {
              "internalType": "address",
              "name": "buyToken",
              "type": "address"
            },
            {
              "internalType": "uint256",
              "name": "sellAmount",
              "type": "uint256"
            },
            {
              "internalType": "uint256",
              "name": "buyAmount",
              "type": "uint256"
            },
            {
              "internalType": "uint256",
              "name": "expirationTimeSeconds",
              "type": "uint256"
            }
          ],
          "internalType": "struct LibOrder.Order",
          "name": "makerOrder",
          "type": "tuple"
        },
        {
          "internalType": "bytes",
          "name": "makerSignature",
          "type": "bytes"
        },
        {
          "internalType": "uint256",
          "name": "takerSellAmount",
          "type": "uint256"
        },
        {
          "internalType": "bool",
          "name": "fillAvailable",
          "type": "bool"
        }
      ],
      "name": "fillOrderExactInputETH",
      "outputs": [
        {
          "internalType": "bool",
          "name": "",
          "type": "bool"
        }
      ],
      "stateMutability": "payable",
      "type": "function"
    },
    {
      "inputs": [
        {
          "components": [
            {
              "internalType": "address",
              "name": "user",
              "type": "address"
            },
            {
              "internalType": "address",
              "name": "sellToken",
              "type": "address"
            },
            {
              "internalType": "address",
              "name": "buyToken",
              "type": "address"
            },
            {
              "internalType": "uint256",
              "name": "sellAmount",
              "type": "uint256"
            },
            {
              "internalType": "uint256",
              "name": "buyAmount",
              "type": "uint256"
            },
            {
              "internalType": "uint256",
              "name": "expirationTimeSeconds",
              "type": "uint256"
            }
          ],
          "internalType": "struct LibOrder.Order",
          "name": "makerOrder",
          "type": "tuple"
        },
        {
          "internalType": "bytes",
          "name": "makerSignature",
          "type": "bytes"
        },
        {
          "internalType": "uint256",
          "name": "takerBuyAmount",
          "type": "uint256"
        },
        {
          "internalType": "bool",
          "name": "fillAvailable",
          "type": "bool"
        }
      ],
      "name": "fillOrderExactOutput",
      "outputs": [
        {
          "internalType": "bool",
          "name": "",
          "type": "bool"
        }
      ],
      "stateMutability": "nonpayable",
      "type": "function"
    },
    {
      "inputs": [
        {
          "components": [
            {
              "internalType": "address",
              "name": "user",
              "type": "address"
            },
            {
              "internalType": "address",
              "name": "sellToken",
              "type": "address"
            },
            {
              "internalType": "address",
              "name": "buyToken",
              "type": "address"
            },
            {
              "internalType": "uint256",
              "name": "sellAmount",
              "type": "uint256"
            },
            {
              "internalType": "uint256",
              "name": "buyAmount",
              "type": "uint256"
            },
            {
              "internalType": "uint256",
              "name": "expirationTimeSeconds",
              "type": "uint256"
            }
          ],
          "internalType": "struct LibOrder.Order",
          "name": "makerOrder",
          "type": "tuple"
        },
        {
          "internalType": "bytes",
          "name": "makerSignature",
          "type": "bytes"
        },
        {
          "internalType": "uint256",
          "name": "takerBuyAmount",
          "type": "uint256"
        },
        {
          "internalType": "bool",
          "name": "fillAvailable",
          "type": "bool"
        }
      ],
      "name": "fillOrderExactOutputETH",
      "outputs": [
        {
          "internalType": "bool",
          "name": "",
          "type": "bool"
        }
      ],
      "stateMutability": "payable",
      "type": "function"
    },
    {
      "inputs": [
        {
          "components": [
            {
              "internalType": "address",
              "name": "user",
              "type": "address"
            },
            {
              "internalType": "address",
              "name": "sellToken",
              "type": "address"
            },
            {
              "internalType": "address",
              "name": "buyToken",
              "type": "address"
            },
            {
              "internalType": "uint256",
              "name": "sellAmount",
              "type": "uint256"
            },
            {
              "internalType": "uint256",
              "name": "buyAmount",
              "type": "uint256"
            },
            {
              "internalType": "uint256",
              "name": "expirationTimeSeconds",
              "type": "uint256"
            }
          ],
          "internalType": "struct LibOrder.Order[]",
          "name": "makerOrder",
          "type": "tuple[]"
        },
        {
          "internalType": "bytes[]",
          "name": "makerSignature",
          "type": "bytes[]"
        },
        {
          "internalType": "uint256",
          "name": "takerAmount",
          "type": "uint256"
        },
        {
          "internalType": "bool",
          "name": "fillAvailable",
          "type": "bool"
        }
      ],
      "name": "fillOrderRoute",
      "outputs": [
        {
          "internalType": "bool",
          "name": "",
          "type": "bool"
        }
      ],
      "stateMutability": "payable",
      "type": "function"
    },
    {
      "inputs": [
        {
          "components": [
            {
              "internalType": "address",
              "name": "user",
              "type": "address"
            },
            {
              "internalType": "address",
              "name": "sellToken",
              "type": "address"
            },
            {
              "internalType": "address",
              "name": "buyToken",
              "type": "address"
            },
            {
              "internalType": "uint256",
              "name": "sellAmount",
              "type": "uint256"
            },
            {
              "internalType": "uint256",
              "name": "buyAmount",
              "type": "uint256"
            },
            {
              "internalType": "uint256",
              "name": "expirationTimeSeconds",
              "type": "uint256"
            }
          ],
          "internalType": "struct LibOrder.Order[]",
          "name": "makerOrder",
          "type": "tuple[]"
        },
        {
          "internalType": "bytes[]",
          "name": "makerSignature",
          "type": "bytes[]"
        },
        {
          "internalType": "uint256",
          "name": "takerAmount",
          "type": "uint256"
        },
        {
          "internalType": "bool",
          "name": "fillAvailable",
          "type": "bool"
        }
      ],
      "name": "fillOrderRouteETH",
      "outputs": [
        {
          "internalType": "bool",
          "name": "",
          "type": "bool"
        }
      ],
      "stateMutability": "payable",
      "type": "function"
    },
    {
      "inputs": [
        {
          "internalType": "bytes32",
          "name": "",
          "type": "bytes32"
        }
      ],
      "name": "filled",
      "outputs": [
        {
          "internalType": "uint256",
          "name": "",
          "type": "uint256"
        }
      ],
      "stateMutability": "view",
      "type": "function"
    },
    {
      "inputs": [
        {
          "components": [
            {
              "internalType": "address",
              "name": "user",
              "type": "address"
            },
            {
              "internalType": "address",
              "name": "sellToken",
              "type": "address"
            },
            {
              "internalType": "address",
              "name": "buyToken",
              "type": "address"
            },
            {
              "internalType": "uint256",
              "name": "sellAmount",
              "type": "uint256"
            },
            {
              "internalType": "uint256",
              "name": "buyAmount",
              "type": "uint256"
            },
            {
              "internalType": "uint256",
              "name": "expirationTimeSeconds",
              "type": "uint256"
            }
          ],
          "internalType": "struct LibOrder.Order",
          "name": "order",
          "type": "tuple"
        }
      ],
      "name": "getOpenOrder",
      "outputs": [
        {
          "components": [
            {
              "internalType": "bytes32",
              "name": "orderHash",
              "type": "bytes32"
            },
            {
              "internalType": "uint256",
              "name": "orderSellFilledAmount",
              "type": "uint256"
            }
          ],
          "internalType": "struct LibOrder.OrderInfo",
          "name": "orderInfo",
          "type": "tuple"
        }
      ],
      "stateMutability": "view",
      "type": "function"
    },
    {
      "inputs": [
        {
          "components": [
            {
              "internalType": "address",
              "name": "user",
              "type": "address"
            },
            {
              "internalType": "address",
              "name": "sellToken",
              "type": "address"
            },
            {
              "internalType": "address",
              "name": "buyToken",
              "type": "address"
            },
            {
              "internalType": "uint256",
              "name": "sellAmount",
              "type": "uint256"
            },
            {
              "internalType": "uint256",
              "name": "buyAmount",
              "type": "uint256"
            },
            {
              "internalType": "uint256",
              "name": "expirationTimeSeconds",
              "type": "uint256"
            }
          ],
          "internalType": "struct LibOrder.Order",
          "name": "order",
          "type": "tuple"
        }
      ],
      "name": "getOrderHash",
      "outputs": [
        {
          "internalType": "bytes32",
          "name": "orderHash",
          "type": "bytes32"
        }
      ],
      "stateMutability": "view",
      "type": "function"
    },
    {
      "inputs": [
        {
          "internalType": "address",
          "name": "forwarder",
          "type": "address"
        }
      ],
      "name": "isTrustedForwarder",
      "outputs": [
        {
          "internalType": "bool",
          "name": "",
          "type": "bool"
        }
      ],
      "stateMutability": "view",
      "type": "function"
    },
    {
      "inputs": [
        {
          "components": [
            {
              "internalType": "address",
              "name": "user",
              "type": "address"
            },
            {
              "internalType": "address",
              "name": "sellToken",
              "type": "address"
            },
            {
              "internalType": "address",
              "name": "buyToken",
              "type": "address"
            },
            {
              "internalType": "uint256",
              "name": "sellAmount",
              "type": "uint256"
            },
            {
              "internalType": "uint256",
              "name": "buyAmount",
              "type": "uint256"
            },
            {
              "internalType": "uint256",
              "name": "expirationTimeSeconds",
              "type": "uint256"
            }
          ],
          "internalType": "struct LibOrder.Order",
          "name": "order",
          "type": "tuple"
        },
        {
          "internalType": "bytes",
          "name": "signature",
          "type": "bytes"
        }
      ],
      "name": "isValidOrderSignature",
      "outputs": [
        {
          "internalType": "bool",
          "name": "",
          "type": "bool"
        }
      ],
      "stateMutability": "view",
      "type": "function"
    },
    {
      "inputs": [
        {
          "internalType": "address",
          "name": "trusted_forwarder",
          "type": "address"
        }
      ],
      "name": "updateTrustedForwarder",
      "outputs": [],
      "stateMutability": "nonpayable",
      "type": "function"
    },
    {
      "stateMutability": "payable",
      "type": "receive"
    }
  ],
  "bytecode": "0x6101a06040523480156200001257600080fd5b50604051620036fe380380620036fe8339810160408190526200003591620001e8565b835160209485012083519385019390932060e08490526101008190524660a0818152604080517f8b73c3c69bb8fe3d512ecc4cf759cc79239f7b179b0ffacaa9a75d522b39400f818a01819052818301989098526060810194909452608080850193909352308483018190528151808603909301835260c0948501909152815191909701209052849052610120929092526001600160a01b03908116610140526101609290925260028054919092166001600160a01b0319909116179055336101805262000277565b634e487b7160e01b600052604160045260246000fd5b600082601f8301126200012657600080fd5b81516001600160401b0380821115620001435762000143620000fe565b604051601f8301601f19908116603f011681019082821181831017156200016e576200016e620000fe565b816040528381526020925086838588010111156200018b57600080fd5b600091505b83821015620001af578582018301518183018401529082019062000190565b83821115620001c15760008385830101525b9695505050505050565b80516001600160a01b0381168114620001e357600080fd5b919050565b60008060008060808587031215620001ff57600080fd5b84516001600160401b03808211156200021757600080fd5b620002258883890162000114565b955060208701519150808211156200023c57600080fd5b506200024b8782880162000114565b9350506200025c60408601620001cb565b91506200026c60608601620001cb565b905092959194509250565b60805160a05160c05160e05161010051610120516101405161016051610180516133a6620003586000396000610cd6015260008181610b7b01528181610bb4015281816113b4015281816114d501528181611ecf01528181612101015281816122920152818161243501526126290152600081816112f30152818161140c0152818161159c01528181611600015281816116eb01528181611dd4015281816123d001528181612658015261271201526000612ae701526000612b3601526000612b1101526000612a6a01526000612a9401526000612abe01526133a66000f3fe6080604052600436106100f75760003560e01c8063acdf57181161008a578063efbdebce11610059578063efbdebce146102c8578063f90b0311146102e8578063faaac14614610308578063feb31ca11461032857600080fd5b8063acdf571814610253578063c50e7b6e14610273578063cc43f94e14610295578063d7803656146102a857600080fd5b8063427c5913116100c6578063427c5913146101d1578063572b6c05146101e457806359e656ef146102205780637334798f1461023357600080fd5b80631941f4ec146101035780631e9c8a6c1461012b578063288cdc91146101665780632ac12622146101a157600080fd5b366100fe57005b600080fd5b610116610111366004612d40565b61033b565b60405190151581526020015b60405180910390f35b34801561013757600080fd5b5061014b610146366004612dcc565b610577565b60408051825181526020928301519281019290925201610122565b34801561017257600080fd5b50610193610181366004612de8565b60006020819052908152604090205481565b604051908152602001610122565b3480156101ad57600080fd5b506101166101bc366004612de8565b60016020526000908152604090205460ff1681565b6101166101df366004612e51565b6105b0565b3480156101f057600080fd5b506101166101ff366004612eef565b60025473ffffffffffffffffffffffffffffffffffffffff91821691161490565b61011661022e366004612e51565b6105f6565b34801561023f57600080fd5b5061011661024e366004612e51565b610628565b34801561025f57600080fd5b5061011661026e366004612f0a565b610697565b34801561027f57600080fd5b5061029361028e366004612dcc565b6106c8565b005b6101166102a3366004612f5e565b61085e565b3480156102b457600080fd5b506101936102c3366004612dcc565b610c5a565b3480156102d457600080fd5b506101166102e3366004612e51565b610c7f565b3480156102f457600080fd5b50610293610303366004612eef565b610cbe565b34801561031457600080fd5b50610116610323366004612d40565b610da4565b610116610336366004612f5e565b611019565b60008483146103d1576040517f08c379a000000000000000000000000000000000000000000000000000000000815260206004820152603860248201527f4c656e677468206f66206d616b65724f726465727320616e64206d616b65725360448201527f69676e61747572657320646f6573206e6f74206d61746368000000000000000060648201526084015b60405180910390fd5b8461045e576040517f08c379a000000000000000000000000000000000000000000000000000000000815260206004820152602260248201527f4c656e677468206f66206d616b65724f72646572732063616e206e6f7420626560448201527f203000000000000000000000000000000000000000000000000000000000000060648201526084016103c8565b6000610468611526565b90506000610477600188613019565b905060005b81811115801561048c5750600085115b156104f8576104da8989838181106104a6576104a6613030565b905060c002018888848181106104be576104be613030565b90506020028101906104d0919061305f565b86878a6001611583565b6104e49086613019565b9450806104f0816130c4565b91505061047c565b508315610561576040517f08c379a000000000000000000000000000000000000000000000000000000000815260206004820152601760248201527f54616b657220616d6f756e74206e6f742066696c6c656400000000000000000060448201526064016103c8565b61056961178b565b506001979650505050505050565b604080518082019091526000808252602082015261059482610c5a565b8082526000908152602081815260409091205490820152919050565b6000806105bb611526565b9050600060808801356105d260608a0135876130fd565b6105dc919061313a565b90506105ed8888888586868a611583565b5061056961178b565b600080610601611526565b905061061287878784858989611583565b5061061b61178b565b5060019695505050505050565b600080610633611526565b90506000608088013561064a60608a0135876130fd565b610654919061313a565b9050610688888888858061066e6040860160208701612eef565b8e60400160208101906106819190612eef565b888c611863565b50600198975050505050505050565b6000806106a385610c5a565b90506106bd6106b56020870187612eef565b828686611acc565b9150505b9392505050565b6106d56020820182612eef565b73ffffffffffffffffffffffffffffffffffffffff166106f3611526565b73ffffffffffffffffffffffffffffffffffffffff1614610770576040517f08c379a000000000000000000000000000000000000000000000000000000000815260206004820152601a60248201527f6f6e6c792075736572206d61792063616e63656c206f7264657200000000000060448201526064016103c8565b600061077b82610c5a565b6000818152602081905260409020549091506060830135116107f9576040517f08c379a000000000000000000000000000000000000000000000000000000000815260206004820152601460248201527f6f7264657220616c72656164792066696c6c656400000000000000000000000060448201526064016103c8565b600081815260016020819052604080832080547fffffffffffffffffffffffffffffffffffffffffffffffffffffffffffffff00169092179091555182917f42c76c81a7cba1b9c861353909a184e20747ab960332628dabcbb5852fc5cbb591a25050565b60008584146108ef576040517f08c379a000000000000000000000000000000000000000000000000000000000815260206004820152603860248201527f4c656e677468206f66206d616b65724f726465727320616e64206d616b65725360448201527f69676e61747572657320646f6573206e6f74206d61746368000000000000000060648201526084016103c8565b8561097c576040517f08c379a000000000000000000000000000000000000000000000000000000000815260206004820152602260248201527f4c656e677468206f66206d616b65724f72646572732063616e206e6f7420626560448201527f203000000000000000000000000000000000000000000000000000000000000060648201526084016103c8565b60018614156109d4576109cd8787600081811061099b5761099b613030565b905060c00201868660008181106109b4576109b4613030565b90506020028101906109c6919061305f565b8686610628565b9050610c50565b60006109de611526565b905060005b87811015610c4957801580610a7f5750888882818110610a0557610a05613030565b905060c002016040016020810190610a1d9190612eef565b73ffffffffffffffffffffffffffffffffffffffff168989610a40600185613019565b818110610a4f57610a4f613030565b905060c002016020016020810190610a679190612eef565b73ffffffffffffffffffffffffffffffffffffffff16145b610ae5576040517f08c379a000000000000000000000000000000000000000000000000000000000815260206004820152601c60248201527f546f6b656e73206f6e20726f75746520646f206e6f74206d617463680000000060448201526064016103c8565b888882818110610af757610af7613030565b905060c0020160800135898983818110610b1357610b13613030565b905060c002016060013586610b2891906130fd565b610b32919061313a565b9450610c35898983818110610b4957610b49613030565b905060c00201888884818110610b6157610b61613030565b9050602002810190610b73919061305f565b8415610b9f577f0000000000000000000000000000000000000000000000000000000000000000610ba1565b855b610bac60018e613019565b8614610bd8577f0000000000000000000000000000000000000000000000000000000000000000610bda565b865b8e8e88818110610bec57610bec613030565b905060c002016020016020810190610c049190612eef565b8f8f89818110610c1657610c16613030565b905060c002016040016020810190610c2e9190612eef565b8c8c611863565b945080610c41816130c4565b9150506109e3565b5060019150505b9695505050505050565b600080610c74610c6f36859003850185613175565b611b18565b90506106c181611bd1565b600080610c8a611526565b90506105698787878480610ca46040860160208701612eef565b8d6040016020810190610cb79190612eef565b8b8b611863565b3373ffffffffffffffffffffffffffffffffffffffff7f00000000000000000000000000000000000000000000000000000000000000001614610d5d576040517f08c379a000000000000000000000000000000000000000000000000000000000815260206004820152600a60248201527f4f4e4c59204f574e45520000000000000000000000000000000000000000000060448201526064016103c8565b600280547fffffffffffffffffffffffff00000000000000000000000000000000000000001673ffffffffffffffffffffffffffffffffffffffff92909216919091179055565b6000848314610e35576040517f08c379a000000000000000000000000000000000000000000000000000000000815260206004820152603860248201527f4c656e677468206f66206d616b65724f726465727320616e64206d616b65725360448201527f69676e61747572657320646f6573206e6f74206d61746368000000000000000060648201526084016103c8565b84610ec2576040517f08c379a000000000000000000000000000000000000000000000000000000000815260206004820152602260248201527f4c656e677468206f66206d616b65724f72646572732063616e206e6f7420626560448201527f203000000000000000000000000000000000000000000000000000000000000060648201526084016103c8565b6000610ecc611526565b90506000610edb600188613019565b905060005b818111158015610ef05750600085115b15610fb057610f92898983818110610f0a57610f0a613030565b905060c00201888884818110610f2257610f22613030565b9050602002810190610f34919061305f565b86878e8e88818110610f4857610f48613030565b905060c002016020016020810190610f609190612eef565b8f8f89818110610f7257610f72613030565b905060c002016040016020810190610f8a9190612eef565b8c6001611863565b610f9c9086613019565b945080610fa8816130c4565b915050610ee0565b508315610569576040517f08c379a000000000000000000000000000000000000000000000000000000000815260206004820152601760248201527f54616b657220616d6f756e74206e6f742066696c6c656400000000000000000060448201526064016103c8565b60008584146110aa576040517f08c379a000000000000000000000000000000000000000000000000000000000815260206004820152603860248201527f4c656e677468206f66206d616b65724f726465727320616e64206d616b65725360448201527f69676e61747572657320646f6573206e6f74206d61746368000000000000000060648201526084016103c8565b85611137576040517f08c379a000000000000000000000000000000000000000000000000000000000815260206004820152602260248201527f4c656e677468206f66206d616b65724f72646572732063616e206e6f7420626560448201527f203000000000000000000000000000000000000000000000000000000000000060648201526084016103c8565b6001861415611188576109cd8787600081811061115657611156613030565b905060c002018686600081811061116f5761116f613030565b9050602002810190611181919061305f565b86866105b0565b6000611192611526565b905060005b878110156105ed5780158061123357508888828181106111b9576111b9613030565b905060c0020160400160208101906111d19190612eef565b73ffffffffffffffffffffffffffffffffffffffff1689896111f4600185613019565b81811061120357611203613030565b905060c00201602001602081019061121b9190612eef565b73ffffffffffffffffffffffffffffffffffffffff16145b611299576040517f08c379a000000000000000000000000000000000000000000000000000000000815260206004820152601c60248201527f546f6b656e73206f6e20726f75746520646f206e6f74206d617463680000000060448201526064016103c8565b8888828181106112ab576112ab613030565b905060c00201608001358989838181106112c7576112c7613030565b905060c0020160600135866112dc91906130fd565b6112e6919061313a565b94508015801561136b57507f000000000000000000000000000000000000000000000000000000000000000073ffffffffffffffffffffffffffffffffffffffff168989600081811061133b5761133b613030565b905060c0020160400160208101906113539190612eef565b73ffffffffffffffffffffffffffffffffffffffff16145b156113e1576113da8989600081811061138657611386613030565b905060c002018888600081811061139f5761139f613030565b90506020028101906113b1919061305f565b857f00000000000000000000000000000000000000000000000000000000000000008a8a611583565b9450611514565b6113ec600189613019565b81148015611478575073ffffffffffffffffffffffffffffffffffffffff7f0000000000000000000000000000000000000000000000000000000000000000168989611439600182613019565b81811061144857611448613030565b905060c0020160200160208101906114609190612eef565b73ffffffffffffffffffffffffffffffffffffffff16145b156114fc576113da898961148d600182613019565b81811061149c5761149c613030565b60c00291909101905088886114b260018d613019565b8181106114c1576114c1613030565b90506020028101906114d3919061305f565b7f0000000000000000000000000000000000000000000000000000000000000000868a8a611583565b611511898983818110610b4957610b49613030565b94505b8061151e816130c4565b915050611197565b3360143610801590611552575060025473ffffffffffffffffffffffffffffffffffffffff8281169116145b1561158057507fffffffffffffffffffffffffffffffffffffffffffffffffffffffffffffffec36013560601c5b90565b600073ffffffffffffffffffffffffffffffffffffffff7f0000000000000000000000000000000000000000000000000000000000000000166115cc60608a0160408b01612eef565b73ffffffffffffffffffffffffffffffffffffffff161480611648575073ffffffffffffffffffffffffffffffffffffffff7f00000000000000000000000000000000000000000000000000000000000000001661163060408a0160208b01612eef565b73ffffffffffffffffffffffffffffffffffffffff16145b6116d4576040517f08c379a000000000000000000000000000000000000000000000000000000000815260206004820152602760248201527f45697468657220627579206f722073656c6c20746f6b656e2073686f756c642060448201527f626520574554480000000000000000000000000000000000000000000000000060648201526084016103c8565b73ffffffffffffffffffffffffffffffffffffffff7f00000000000000000000000000000000000000000000000000000000000000001661171b60608a0160408b01612eef565b73ffffffffffffffffffffffffffffffffffffffff16141561175f57611758888888888861174f6040860160208701612eef565b60008a8a611863565b9050611780565b611758888888888860006117796060870160408801612eef565b8a8a611863565b979650505050505050565b47156118615760408051600080825260208201909252339047906040516117b29190613259565b60006040518083038185875af1925050503d80600081146117ef576040519150601f19603f3d011682016040523d82523d6000602084013e6117f4565b606091505b505090508061185f576040517f08c379a000000000000000000000000000000000000000000000000000000000815260206004820152601360248201527f455448207472616e73666572206661696c65640000000000000000000000000060448201526064016103c8565b505b565b600073ffffffffffffffffffffffffffffffffffffffff86166118e2576040517f08c379a000000000000000000000000000000000000000000000000000000000815260206004820152601c60248201527f43616e27742072656369766520746f207a65726f20616464726573730000000060448201526064016103c8565b60006118ed8b610577565b90506000806118fe838e8e8e611c40565b915091508115801561190d5750845b1561191e5760009350505050611abf565b8082611957576040517f08c379a00000000000000000000000000000000000000000000000000000000081526004016103c891906132bf565b50505060008082602001518d606001356119719190613019565b905084801561197f57508581105b15611988578095505b60608d013561199b60808f0135886130fd565b6119a5919061313a565b915080861115611a11576040517f08c379a000000000000000000000000000000000000000000000000000000000815260206004820152601d60248201527f616d6f756e74206578636565647320617661696c61626c652073697a6500000060448201526064016103c8565b50600080611a328e6000016020810190611a2b9190612eef565b8a89611db3565b9150915081158015611a415750855b15611a53576000945050505050611abf565b8082611a8c576040517f08c379a00000000000000000000000000000000000000000000000000000000081526004016103c891906132bf565b505050611a9e828d6060013587612001565b611ab9611aae60208e018e612eef565b8a8a8a8a8a87612075565b84925050505b9998505050505050505050565b6000611b0f858585858080601f01602080910402602001604051908101604052809392919081815260200183838082843760009201919091525061288392505050565b95945050505050565b80516020808301516040808501516060860151608087015160a08801519351600097611bb4977f68d868c8698fc31da3a36bb7a184a4af099797794701bae97bea3de7ebe6e39997919691959493920196875273ffffffffffffffffffffffffffffffffffffffff95861660208801529385166040870152919093166060850152608084019290925260a083019190915260c082015260e00190565b604051602081830303815290604052805190602001209050919050565b6000611c3a611bde612a50565b836040517f19010000000000000000000000000000000000000000000000000000000000006020820152602281018390526042810182905260009060620160405160208183030381529060405280519060200120905092915050565b92915050565b60006060611c5d611c546020870187612eef565b87518686611acc565b611c9f57505060408051808201909152601781527f696e76616c6964206d616b6572207369676e61747572650000000000000000006020820152600090611daa565b855160009081526001602052604090205460ff1615611cf657505060408051808201909152600e81527f6f726465722063616e63656c65640000000000000000000000000000000000006020820152600090611daa565b8460a00135421115611d4057505060408051808201909152600d81527f6f726465722065787069726564000000000000000000000000000000000000006020820152600090611daa565b6020860151611d53906060870135613019565b611d9557505060408051808201909152600f81527f6f726465722069732066696c6c656400000000000000000000000000000000006020820152600090611daa565b50506040805160208101909152600081526001905b94509492505050565b6000606073ffffffffffffffffffffffffffffffffffffffff8416611df6577f000000000000000000000000000000000000000000000000000000000000000093505b6040517f70a0823100000000000000000000000000000000000000000000000000000000815273ffffffffffffffffffffffffffffffffffffffff8681166004830152600091908616906370a0823190602401602060405180830381865afa158015611e66573d6000803e3d6000fd5b505050506040513d601f19601f82011682018060405250810190611e8a91906132d2565b6040517fdd62ed3e00000000000000000000000000000000000000000000000000000000815273ffffffffffffffffffffffffffffffffffffffff88811660048301527f00000000000000000000000000000000000000000000000000000000000000008116602483015291925060009187169063dd62ed3e90604401602060405180830381865afa158015611f24573d6000803e3d6000fd5b505050506040513d601f19601f82011682018060405250810190611f4891906132d2565b905084821015611f955760006040518060400160405280601e81526020017f6d616b6572206f72646572206e6f7420656e6f7567682062616c616e63650000815250935093505050611ff9565b84811015611fe05760006040518060400160405280602081526020017f6d616b6572206f72646572206e6f7420656e6f75676820616c6c6f77616e6365815250935093505050611ff9565b6001604051806020016040528060008152509350935050505b935093915050565b600081846020015161201391906132eb565b8451600090815260208190526040902081905584519091507ff56da1ef5eb4658fc8a117e0749fb8d158d65790babdb91264a19c3c2fad622c826120578187613019565b6040805192835260208301919091520160405180910390a250505050565b73ffffffffffffffffffffffffffffffffffffffff83166120ff57803410156120fa576040517f08c379a000000000000000000000000000000000000000000000000000000000815260206004820152601960248201527f6d73672076616c7565206e6f74206869676820656e6f7567680000000000000060448201526064016103c8565b612370565b7f000000000000000000000000000000000000000000000000000000000000000073ffffffffffffffffffffffffffffffffffffffff168673ffffffffffffffffffffffffffffffffffffffff1614612370576040517f70a0823100000000000000000000000000000000000000000000000000000000815273ffffffffffffffffffffffffffffffffffffffff87811660048301528291908516906370a0823190602401602060405180830381865afa1580156121c1573d6000803e3d6000fd5b505050506040513d601f19601f820116820180604052508101906121e591906132d2565b101561224d576040517f08c379a000000000000000000000000000000000000000000000000000000000815260206004820152601e60248201527f74616b6572206f72646572206e6f7420656e6f7567682062616c616e6365000060448201526064016103c8565b6040517fdd62ed3e00000000000000000000000000000000000000000000000000000000815273ffffffffffffffffffffffffffffffffffffffff87811660048301527f00000000000000000000000000000000000000000000000000000000000000008116602483015282919085169063dd62ed3e90604401602060405180830381865afa1580156122e4573d6000803e3d6000fd5b505050506040513d601f19601f8201168201806040525081019061230891906132d2565b1015612370576040517f08c379a000000000000000000000000000000000000000000000000000000000815260206004820181905260248201527f74616b6572206f72646572206e6f7420656e6f75676820616c6c6f77616e636560448201526064016103c8565b73ffffffffffffffffffffffffffffffffffffffff8316612433576040517fb760faf900000000000000000000000000000000000000000000000000000000815273ffffffffffffffffffffffffffffffffffffffff88811660048301527f0000000000000000000000000000000000000000000000000000000000000000169063b760faf99083906024016000604051808303818588803b15801561241557600080fd5b505af1158015612429573d6000803e3d6000fd5b50505050506125c9565b7f000000000000000000000000000000000000000000000000000000000000000073ffffffffffffffffffffffffffffffffffffffff168673ffffffffffffffffffffffffffffffffffffffff161415612526576040517fa9059cbb00000000000000000000000000000000000000000000000000000000815273ffffffffffffffffffffffffffffffffffffffff88811660048301526024820183905284169063a9059cbb906044016020604051808303816000875af11580156124fc573d6000803e3d6000fd5b505050506040513d601f19601f820116820180604052508101906125209190613303565b506125c9565b6040517f23b872dd00000000000000000000000000000000000000000000000000000000815273ffffffffffffffffffffffffffffffffffffffff87811660048301528881166024830152604482018390528416906323b872dd906064016020604051808303816000875af11580156125a3573d6000803e3d6000fd5b505050506040513d601f19601f820116820180604052508101906125c79190613303565b505b73ffffffffffffffffffffffffffffffffffffffff8416612773576040517f23b872dd00000000000000000000000000000000000000000000000000000000815273ffffffffffffffffffffffffffffffffffffffff88811660048301527f000000000000000000000000000000000000000000000000000000000000000081166024830152604482018490527f000000000000000000000000000000000000000000000000000000000000000016906323b872dd906064016020604051808303816000875af11580156126a1573d6000803e3d6000fd5b505050506040513d601f19601f820116820180604052508101906126c59190613303565b506040517f205c287800000000000000000000000000000000000000000000000000000000815273ffffffffffffffffffffffffffffffffffffffff8681166004830152602482018490527f0000000000000000000000000000000000000000000000000000000000000000169063205c287890604401600060405180830381600087803b15801561275657600080fd5b505af115801561276a573d6000803e3d6000fd5b50505050612816565b6040517f23b872dd00000000000000000000000000000000000000000000000000000000815273ffffffffffffffffffffffffffffffffffffffff88811660048301528681166024830152604482018490528516906323b872dd906064016020604051808303816000875af11580156127f0573d6000803e3d6000fd5b505050506040513d601f19601f820116820180604052508101906128149190613303565b505b6040805173ffffffffffffffffffffffffffffffffffffffff8981168252602082018590529181018390528185169186811691908916907f20efd6d5195b7b50273f01cd79a27989255356f9f13293edc53ee142accfdb759060600160405180910390a450505050505050565b60008060006128928585612b84565b909250905060008160048111156128ab576128ab613320565b1480156128e357508573ffffffffffffffffffffffffffffffffffffffff168273ffffffffffffffffffffffffffffffffffffffff16145b156128f3576001925050506106c1565b6000808773ffffffffffffffffffffffffffffffffffffffff16631626ba7e60e01b888860405160240161292892919061334f565b604080517fffffffffffffffffffffffffffffffffffffffffffffffffffffffffffffffe08184030181529181526020820180517bffffffffffffffffffffffffffffffffffffffffffffffffffffffff167fffffffff000000000000000000000000000000000000000000000000000000009094169390931790925290516129b19190613259565b600060405180830381855afa9150503d80600081146129ec576040519150601f19603f3d011682016040523d82523d6000602084013e6129f1565b606091505b5091509150818015612a04575080516020145b8015612a44575080517f1626ba7e0000000000000000000000000000000000000000000000000000000090612a4290830160209081019084016132d2565b145b98975050505050505050565b60003073ffffffffffffffffffffffffffffffffffffffff7f000000000000000000000000000000000000000000000000000000000000000016148015612ab657507f000000000000000000000000000000000000000000000000000000000000000046145b15612ae057507f000000000000000000000000000000000000000000000000000000000000000090565b50604080517f00000000000000000000000000000000000000000000000000000000000000006020808301919091527f0000000000000000000000000000000000000000000000000000000000000000828401527f000000000000000000000000000000000000000000000000000000000000000060608301524660808301523060a0808401919091528351808403909101815260c0909201909252805191012090565b600080825160411415612bbb5760208301516040840151606085015160001a612baf87828585612bca565b94509450505050612bc3565b506000905060025b9250929050565b6000807f7fffffffffffffffffffffffffffffff5d576e7357a4501ddfe92f46681b20a0831115612c015750600090506003611daa565b6040805160008082526020820180845289905260ff881692820192909252606081018690526080810185905260019060a0016020604051602081039080840390855afa158015612c55573d6000803e3d6000fd5b50506040517fffffffffffffffffffffffffffffffffffffffffffffffffffffffffffffffe0015191505073ffffffffffffffffffffffffffffffffffffffff8116612ca957600060019250925050611daa565b9660009650945050505050565b60008083601f840112612cc857600080fd5b50813567ffffffffffffffff811115612ce057600080fd5b60208301915083602060c083028501011115612bc357600080fd5b60008083601f840112612d0d57600080fd5b50813567ffffffffffffffff811115612d2557600080fd5b6020830191508360208260051b8501011115612bc357600080fd5b600080600080600060608688031215612d5857600080fd5b853567ffffffffffffffff80821115612d7057600080fd5b612d7c89838a01612cb6565b90975095506020880135915080821115612d9557600080fd5b50612da288828901612cfb565b96999598509660400135949350505050565b600060c08284031215612dc657600080fd5b50919050565b600060c08284031215612dde57600080fd5b6106c18383612db4565b600060208284031215612dfa57600080fd5b5035919050565b60008083601f840112612e1357600080fd5b50813567ffffffffffffffff811115612e2b57600080fd5b602083019150836020828501011115612bc357600080fd5b801515811461185f57600080fd5b60008060008060006101208688031215612e6a57600080fd5b612e748787612db4565b945060c086013567ffffffffffffffff811115612e9057600080fd5b612e9c88828901612e01565b90955093505060e08601359150610100860135612eb881612e43565b809150509295509295909350565b803573ffffffffffffffffffffffffffffffffffffffff81168114612eea57600080fd5b919050565b600060208284031215612f0157600080fd5b6106c182612ec6565b600080600060e08486031215612f1f57600080fd5b612f298585612db4565b925060c084013567ffffffffffffffff811115612f4557600080fd5b612f5186828701612e01565b9497909650939450505050565b60008060008060008060808789031215612f7757600080fd5b863567ffffffffffffffff80821115612f8f57600080fd5b612f9b8a838b01612cb6565b90985096506020890135915080821115612fb457600080fd5b50612fc189828a01612cfb565b909550935050604087013591506060870135612fdc81612e43565b809150509295509295509295565b7f4e487b7100000000000000000000000000000000000000000000000000000000600052601160045260246000fd5b60008282101561302b5761302b612fea565b500390565b7f4e487b7100000000000000000000000000000000000000000000000000000000600052603260045260246000fd5b60008083357fffffffffffffffffffffffffffffffffffffffffffffffffffffffffffffffe184360301811261309457600080fd5b83018035915067ffffffffffffffff8211156130af57600080fd5b602001915036819003821315612bc357600080fd5b60007fffffffffffffffffffffffffffffffffffffffffffffffffffffffffffffffff8214156130f6576130f6612fea565b5060010190565b6000817fffffffffffffffffffffffffffffffffffffffffffffffffffffffffffffffff048311821515161561313557613135612fea565b500290565b600082613170577f4e487b7100000000000000000000000000000000000000000000000000000000600052601260045260246000fd5b500490565b600060c0828403121561318757600080fd5b60405160c0810181811067ffffffffffffffff821117156131d1577f4e487b7100000000000000000000000000000000000000000000000000000000600052604160045260246000fd5b6040526131dd83612ec6565b81526131eb60208401612ec6565b60208201526131fc60408401612ec6565b6040820152606083013560608201526080830135608082015260a083013560a08201528091505092915050565b60005b8381101561324457818101518382015260200161322c565b83811115613253576000848401525b50505050565b6000825161326b818460208701613229565b9190910192915050565b6000815180845261328d816020860160208601613229565b601f017fffffffffffffffffffffffffffffffffffffffffffffffffffffffffffffffe0169290920160200192915050565b6020815260006106c16020830184613275565b6000602082840312156132e457600080fd5b5051919050565b600082198211156132fe576132fe612fea565b500190565b60006020828403121561331557600080fd5b81516106c181612e43565b7f4e487b7100000000000000000000000000000000000000000000000000000000600052602160045260246000fd5b8281526040602082015260006133686040830184613275565b94935050505056fea2646970667358221220fc4aeaeeef08c64971d86c57a8b9ffab8c3200746885da75a837ad238d38c0b164736f6c634300080a0033",
  "linkReferences": {},
  "deployedLinkReferences": {}
}